{
  "contractName": "LandManagment",
  "abi": [
    {
      "inputs": [],
      "payable": false,
      "stateMutability": "nonpayable",
      "type": "constructor"
    },
    {
      "constant": false,
      "inputs": [
        {
          "name": "username",
          "type": "string"
        },
        {
          "name": "password",
          "type": "string"
        },
        {
          "name": "userid",
          "type": "address"
        },
        {
          "name": "isAdmin",
          "type": "bool"
        }
      ],
      "name": "addUser",
      "outputs": [],
      "payable": false,
      "stateMutability": "nonpayable",
      "type": "function"
    },
    {
      "constant": false,
      "inputs": [],
      "name": "getAllUsers",
      "outputs": [
        {
          "name": "",
          "type": "address[]"
        },
        {
          "name": "",
          "type": "string[]"
        }
      ],
      "payable": false,
      "stateMutability": "nonpayable",
      "type": "function"
    },
    {
      "constant": false,
      "inputs": [
        {
          "name": "landName",
          "type": "string"
        },
        {
          "name": "ownerAddress",
          "type": "address"
        }
      ],
      "name": "createLand",
      "outputs": [],
      "payable": false,
      "stateMutability": "nonpayable",
      "type": "function"
    },
    {
      "constant": false,
      "inputs": [
        {
          "name": "ownerAddress",
          "type": "address"
        }
      ],
      "name": "getLandByUser",
      "outputs": [
        {
          "name": "",
          "type": "uint256[]"
        }
      ],
      "payable": false,
      "stateMutability": "nonpayable",
      "type": "function"
    },
    {
      "constant": false,
      "inputs": [
        {
          "name": "landId",
          "type": "uint256"
        }
      ],
      "name": "getLandName",
      "outputs": [
        {
          "name": "",
          "type": "string"
        }
      ],
      "payable": false,
      "stateMutability": "nonpayable",
      "type": "function"
    },
    {
      "constant": false,
      "inputs": [
        {
          "name": "userAddress",
          "type": "address"
        },
        {
          "name": "landId",
          "type": "uint256"
        }
      ],
      "name": "transferLand",
      "outputs": [],
      "payable": false,
      "stateMutability": "nonpayable",
      "type": "function"
    }
  ],
  "bytecode": "0x60806040526001600055600060015534801561001a57600080fd5b5060405180608001604052806040518060400160405280600581526020017f61726a756e00000000000000000000000000000000000000000000000000000081525081526020016040518060400160405280600881526020017f746f70733f31323300000000000000000000000000000000000000000000000081525081526020013373ffffffffffffffffffffffffffffffffffffffff168152602001600115158152506002600080815260200190815260200160002060008201518160000190805190602001906100ee92919061017b565b50602082015181600101908051906020019061010b92919061017b565b5060408201518160020160006101000a81548173ffffffffffffffffffffffffffffffffffffffff021916908373ffffffffffffffffffffffffffffffffffffffff16021790555060608201518160020160146101000a81548160ff021916908315150217905550905050610220565b828054600181600116156101000203166002900490600052602060002090601f016020900481019282601f106101bc57805160ff19168380011785556101ea565b828001600101855582156101ea579182015b828111156101e95782518255916020019190600101906101ce565b5b5090506101f791906101fb565b5090565b61021d91905b80821115610219576000816000905550600101610201565b5090565b90565b610ed380620002306000396000f3fe608060405234801561001057600080fd5b50600436106100625760003560e01c8063174e361614610067578063a0d0922114610097578063af598f9c146100b3578063b3f40d6a146100e3578063c32c869b146100ff578063e2842d791461011b575b600080fd5b610081600480360361007c9190810190610891565b61013a565b60405161008e9190610c42565b60405180910390f35b6100b160048036036100ac91908101906108f6565b610228565b005b6100cd60048036036100c891908101906109dd565b6102f0565b6040516100da9190610c64565b60405180910390f35b6100fd60048036036100f891908101906108ba565b6103eb565b005b6101196004803603610114919081019061094a565b610444565b005b610123610547565b604051610131929190610c0b565b60405180910390f35b60608060015460405190808252806020026020018201604052801561016e5781602001602082028038833980820191505090505b509050600080905060008090505b60015481101561021d578473ffffffffffffffffffffffffffffffffffffffff166003600083815260200190815260200160002060020160009054906101000a900473ffffffffffffffffffffffffffffffffffffffff1673ffffffffffffffffffffffffffffffffffffffff16141561021057808383815181106101fd57fe5b6020026020010181815250506001820191505b808060010191505061017c565b508192505050919050565b604051806060016040528060015481526020018381526020018273ffffffffffffffffffffffffffffffffffffffff16815250600360006001548152602001908152602001600020600082015181600001556020820151816001019080519060200190610296929190610759565b5060408201518160020160006101000a81548173ffffffffffffffffffffffffffffffffffffffff021916908373ffffffffffffffffffffffffffffffffffffffff16021790555090505060018054016001819055505050565b606060008090505b6001548110156103e45782600360008381526020019081526020016000206000015414156103d757600360008281526020019081526020016000206001018054600181600116156101000203166002900480601f0160208091040260200160405190810160405280929190818152602001828054600181600116156101000203166002900480156103ca5780601f1061039f576101008083540402835291602001916103ca565b820191906000526020600020905b8154815290600101906020018083116103ad57829003601f168201915b50505050509150506103e6565b80806001019150506102f8565b505b919050565b816003600083815260200190815260200160002060020160006101000a81548173ffffffffffffffffffffffffffffffffffffffff021916908373ffffffffffffffffffffffffffffffffffffffff1602179055505050565b60405180608001604052808581526020018481526020018373ffffffffffffffffffffffffffffffffffffffff168152602001821515815250600260008054815260200190815260200160002060008201518160000190805190602001906104ad929190610759565b5060208201518160010190805190602001906104ca929190610759565b5060408201518160020160006101000a81548173ffffffffffffffffffffffffffffffffffffffff021916908373ffffffffffffffffffffffffffffffffffffffff16021790555060608201518160020160146101000a81548160ff02191690831515021790555090505060016000540160008190555050505050565b606080606060005460405190808252806020026020018201604052801561057d5781602001602082028038833980820191505090505b50905060606000546040519080825280602002602001820160405280156105b857816020015b60608152602001906001900390816105a35790505b50905060008090505b60005481101561074c57600015156002600083815260200190815260200160002060020160149054906101000a900460ff161515141561073f576002600082815260200190815260200160002060020160009054906101000a900473ffffffffffffffffffffffffffffffffffffffff1683828151811061063e57fe5b602002602001019073ffffffffffffffffffffffffffffffffffffffff16908173ffffffffffffffffffffffffffffffffffffffff1681525050600260008281526020019081526020016000206000018054600181600116156101000203166002900480601f0160208091040260200160405190810160405280929190818152602001828054600181600116156101000203166002900480156107225780601f106106f757610100808354040283529160200191610722565b820191906000526020600020905b81548152906001019060200180831161070557829003601f168201915b505050505082828151811061073357fe5b60200260200101819052505b80806001019150506105c1565b5081819350935050509091565b828054600181600116156101000203166002900490600052602060002090601f016020900481019282601f1061079a57805160ff19168380011785556107c8565b828001600101855582156107c8579182015b828111156107c75782518255916020019190600101906107ac565b5b5090506107d591906107d9565b5090565b6107fb91905b808211156107f75760008160009055506001016107df565b5090565b90565b60008135905061080d81610e54565b92915050565b60008135905061082281610e6b565b92915050565b600082601f83011261083957600080fd5b813561084c61084782610cb3565b610c86565b9150808252602083016020830185838301111561086857600080fd5b610873838284610e01565b50505092915050565b60008135905061088b81610e82565b92915050565b6000602082840312156108a357600080fd5b60006108b1848285016107fe565b91505092915050565b600080604083850312156108cd57600080fd5b60006108db858286016107fe565b92505060206108ec8582860161087c565b9150509250929050565b6000806040838503121561090957600080fd5b600083013567ffffffffffffffff81111561092357600080fd5b61092f85828601610828565b9250506020610940858286016107fe565b9150509250929050565b6000806000806080858703121561096057600080fd5b600085013567ffffffffffffffff81111561097a57600080fd5b61098687828801610828565b945050602085013567ffffffffffffffff8111156109a357600080fd5b6109af87828801610828565b93505060406109c0878288016107fe565b92505060606109d187828801610813565b91505092959194509250565b6000602082840312156109ef57600080fd5b60006109fd8482850161087c565b91505092915050565b6000610a128383610a4a565b60208301905092915050565b6000610a2a8383610bc3565b905092915050565b6000610a3e8383610bfc565b60208301905092915050565b610a5381610db9565b82525050565b6000610a6482610d06565b610a6e8185610d64565b9350610a7983610cdf565b8060005b83811015610aaa578151610a918882610a06565b9750610a9c83610d3d565b925050600181019050610a7d565b5085935050505092915050565b6000610ac282610d11565b610acc8185610d75565b935083602082028501610ade85610cec565b8060005b85811015610b1a5784840389528151610afb8582610a1e565b9450610b0683610d4a565b925060208a01995050600181019050610ae2565b50829750879550505050505092915050565b6000610b3782610d1c565b610b418185610d86565b9350610b4c83610cf9565b8060005b83811015610b7d578151610b648882610a32565b9750610b6f83610d57565b925050600181019050610b50565b5085935050505092915050565b6000610b9582610d32565b610b9f8185610da8565b9350610baf818560208601610e10565b610bb881610e43565b840191505092915050565b6000610bce82610d27565b610bd88185610d97565b9350610be8818560208601610e10565b610bf181610e43565b840191505092915050565b610c0581610df7565b82525050565b60006040820190508181036000830152610c258185610a59565b90508181036020830152610c398184610ab7565b90509392505050565b60006020820190508181036000830152610c5c8184610b2c565b905092915050565b60006020820190508181036000830152610c7e8184610b8a565b905092915050565b6000604051905081810181811067ffffffffffffffff82111715610ca957600080fd5b8060405250919050565b600067ffffffffffffffff821115610cca57600080fd5b601f19601f8301169050602081019050919050565b6000602082019050919050565b6000602082019050919050565b6000602082019050919050565b600081519050919050565b600081519050919050565b600081519050919050565b600081519050919050565b600081519050919050565b6000602082019050919050565b6000602082019050919050565b6000602082019050919050565b600082825260208201905092915050565b600082825260208201905092915050565b600082825260208201905092915050565b600082825260208201905092915050565b600082825260208201905092915050565b6000610dc482610dd7565b9050919050565b60008115159050919050565b600073ffffffffffffffffffffffffffffffffffffffff82169050919050565b6000819050919050565b82818337600083830152505050565b60005b83811015610e2e578082015181840152602081019050610e13565b83811115610e3d576000848401525b50505050565b6000601f19601f8301169050919050565b610e5d81610db9565b8114610e6857600080fd5b50565b610e7481610dcb565b8114610e7f57600080fd5b50565b610e8b81610df7565b8114610e9657600080fd5b5056fea265627a7a72305820c5fb84094ac32e4a07364c79d6d9877ecc74c904430a7a0d5820fd8fa167c8af6c6578706572696d656e74616cf50037",
  "source": "      pragma solidity ^0.5.0;\n      pragma experimental ABIEncoderV2;\n\n\n\n      contract LandManagment{\n\n          uint totalUsers = 1;\n          uint totalLands = 0;\n\n          struct User{\n              string username;\n              string password;\n              address userid;\n              bool isAdmin;\n          }\n\n          struct Land{\n              uint landId;\n              string landName;\n              address ownerAddress;\n          }\n\n          mapping(uint => User) users;\n          mapping(uint => Land) lands;\n\n          //constructor function\n          constructor() public{\n              users[0] = User(\"arjun\",\"tops?123\",msg.sender,true);\n          }\n\n          function addUser(string memory username,string memory password, address userid, bool isAdmin) public{\n              users[totalUsers] = User(username,password,userid,isAdmin);\n              totalUsers = totalUsers +1;\n          }\n\n          function getAllUsers() public returns(address[] memory, string[] memory){\n              address[] memory allAddress = new address[](totalUsers);\n              string[] memory allUsernames = new string[](totalUsers);\n              for(uint x=0; x < totalUsers; x++){\n                  if(users[x].isAdmin == false){\n                    allAddress[x] = users[x].userid;\n                    allUsernames[x] = users[x].username;\n                  }\n              }\n              return (allAddress,allUsernames);\n\n          }\n\n          function createLand(string memory landName, address ownerAddress) public{\n              lands[totalLands] = Land(totalLands, landName, ownerAddress);\n              totalLands= totalLands+1;\n          }\n\n          function getLandByUser(address ownerAddress) public returns(uint[] memory) {\n              uint[] memory allLendsBySpecifUser = new uint[](totalLands);\n              uint z = 0;\n                for(uint y=0; y<totalLands; y++){\n                    if(lands[y].ownerAddress == ownerAddress){\n                        allLendsBySpecifUser[z] = y;\n                        z = z+1;\n                    }\n                }\n               return allLendsBySpecifUser;\n          }\n\n          function getLandName(uint landId) public returns(string memory){\n              for(uint y=0; y<totalLands; y++){\n                    if(lands[y].landId == landId){\n                        return lands[y].landName;\n                    }\n                }\n          }\n\n          function transferLand(address userAddress, uint landId) public{\n              lands[landId].ownerAddress = userAddress;\n          }\n\n      }",
  "sourcePath": "/home/tops/Desktop/Project/blockChain_demo/blockchain-demo/contracts/LandManagment.sol",
  "compiler": {
    "name": "solc",
    "version": "0.5.8+commit.23d335f2.Emscripten.clang"
  },
  "schemaVersion": "3.0.10",
  "updatedAt": "2019-06-08T10:04:10.833Z",
  "devdoc": {
    "methods": {}
  },
  "userdoc": {
    "methods": {}
  }
}