{
  "contractName": "LandManagment",
  "abi": [
    {
      "inputs": [],
      "payable": false,
      "stateMutability": "nonpayable",
      "type": "constructor"
    },
    {
      "constant": false,
      "inputs": [
        {
          "name": "username",
          "type": "string"
        },
        {
          "name": "password",
          "type": "string"
        },
        {
          "name": "userid",
          "type": "address"
        },
        {
          "name": "isAdmin",
          "type": "bool"
        }
      ],
      "name": "addUser",
      "outputs": [],
      "payable": false,
      "stateMutability": "nonpayable",
      "type": "function"
    },
    {
      "constant": false,
      "inputs": [],
      "name": "getAllUsers",
      "outputs": [
        {
          "name": "",
          "type": "address[]"
        },
        {
          "name": "",
          "type": "string[]"
        }
      ],
      "payable": false,
      "stateMutability": "nonpayable",
      "type": "function"
    },
    {
      "constant": false,
      "inputs": [
        {
          "name": "landName",
          "type": "string"
        },
        {
          "name": "ownerAddress",
          "type": "address"
        }
      ],
      "name": "createLand",
      "outputs": [],
      "payable": false,
      "stateMutability": "nonpayable",
      "type": "function"
    },
    {
      "constant": false,
      "inputs": [
        {
          "name": "ownerAddress",
          "type": "address"
        }
      ],
      "name": "getLandByUser",
      "outputs": [
        {
          "name": "",
          "type": "uint256[]"
        }
      ],
      "payable": false,
      "stateMutability": "nonpayable",
      "type": "function"
    },
    {
      "constant": false,
      "inputs": [
        {
          "name": "landId",
          "type": "uint256"
        }
      ],
      "name": "getLandName",
      "outputs": [
        {
          "name": "",
          "type": "string"
        }
      ],
      "payable": false,
      "stateMutability": "nonpayable",
      "type": "function"
    },
    {
      "constant": false,
      "inputs": [
        {
          "name": "userAddress",
          "type": "address"
        },
        {
          "name": "landId",
          "type": "uint256"
        }
      ],
      "name": "transferLand",
      "outputs": [],
      "payable": false,
      "stateMutability": "nonpayable",
      "type": "function"
    },
    {
      "constant": false,
      "inputs": [
        {
          "name": "username",
          "type": "string"
        },
        {
          "name": "password",
          "type": "string"
        }
      ],
      "name": "checkIfUserExists",
      "outputs": [
        {
          "name": "",
          "type": "bool"
        }
      ],
      "payable": false,
      "stateMutability": "nonpayable",
      "type": "function"
    }
  ],
  "bytecode": "0x6080604052600160005560006001553480156200001b57600080fd5b5060405180608001604052806040518060400160405280600581526020017f61726a756e00000000000000000000000000000000000000000000000000000081525081526020016040518060400160405280600881526020017f746f70733f31323300000000000000000000000000000000000000000000000081525081526020013373ffffffffffffffffffffffffffffffffffffffff16815260200160011515815250600260008081526020019081526020016000206000820151816000019080519060200190620000f192919062000181565b5060208201518160010190805190602001906200011092919062000181565b5060408201518160020160006101000a81548173ffffffffffffffffffffffffffffffffffffffff021916908373ffffffffffffffffffffffffffffffffffffffff16021790555060608201518160020160146101000a81548160ff02191690831515021790555090505062000230565b828054600181600116156101000203166002900490600052602060002090601f016020900481019282601f10620001c457805160ff1916838001178555620001f5565b82800160010185558215620001f5579182015b82811115620001f4578251825591602001919060010190620001d7565b5b50905062000204919062000208565b5090565b6200022d91905b80821115620002295760008160009055506001016200020f565b5090565b90565b6111c780620002406000396000f3fe608060405234801561001057600080fd5b506004361061007d5760003560e01c8063b3f40d6a1161005b578063b3f40d6a146100fe578063c32c869b1461011a578063c494243f14610136578063e2842d79146101665761007d565b8063174e361614610082578063a0d09221146100b2578063af598f9c146100ce575b600080fd5b61009c600480360361009791908101906109e5565b610185565b6040516100a99190610efe565b60405180910390f35b6100cc60048036036100c79190810190610a4a565b610273565b005b6100e860048036036100e39190810190610b9d565b61033b565b6040516100f59190610f3b565b60405180910390f35b61011860048036036101139190810190610a0e565b610436565b005b610134600480360361012f9190810190610b0a565b61048f565b005b610150600480360361014b9190810190610a9e565b610592565b60405161015d9190610f20565b60405180910390f35b61016e61069b565b60405161017c929190610ec7565b60405180910390f35b6060806001546040519080825280602002602001820160405280156101b95781602001602082028038833980820191505090505b509050600080905060008090505b600154811015610268578473ffffffffffffffffffffffffffffffffffffffff166003600083815260200190815260200160002060020160009054906101000a900473ffffffffffffffffffffffffffffffffffffffff1673ffffffffffffffffffffffffffffffffffffffff16141561025b578083838151811061024857fe5b6020026020010181815250506001820191505b80806001019150506101c7565b508192505050919050565b604051806060016040528060015481526020018381526020018273ffffffffffffffffffffffffffffffffffffffff168152506003600060015481526020019081526020016000206000820151816000015560208201518160010190805190602001906102e19291906108ad565b5060408201518160020160006101000a81548173ffffffffffffffffffffffffffffffffffffffff021916908373ffffffffffffffffffffffffffffffffffffffff16021790555090505060018054016001819055505050565b606060008090505b60015481101561042f57826003600083815260200190815260200160002060000154141561042257600360008281526020019081526020016000206001018054600181600116156101000203166002900480601f0160208091040260200160405190810160405280929190818152602001828054600181600116156101000203166002900480156104155780601f106103ea57610100808354040283529160200191610415565b820191906000526020600020905b8154815290600101906020018083116103f857829003601f168201915b5050505050915050610431565b8080600101915050610343565b505b919050565b816003600083815260200190815260200160002060020160006101000a81548173ffffffffffffffffffffffffffffffffffffffff021916908373ffffffffffffffffffffffffffffffffffffffff1602179055505050565b60405180608001604052808581526020018481526020018373ffffffffffffffffffffffffffffffffffffffff168152602001821515815250600260008054815260200190815260200160002060008201518160000190805190602001906104f89291906108ad565b5060208201518160010190805190602001906105159291906108ad565b5060408201518160020160006101000a81548173ffffffffffffffffffffffffffffffffffffffff021916908373ffffffffffffffffffffffffffffffffffffffff16021790555060608201518160020160146101000a81548160ff02191690831515021790555090505060016000540160008190555050505050565b6000806000905060005481101561069357836040516020016105b49190610e99565b60405160208183030381529060405280519060200120600260008381526020019081526020016000206000016040516020016105f09190610eb0565b604051602081830303815290604052805190602001201415610689578260405160200161061d9190610e99565b60405160208183030381529060405280519060200120600260008381526020019081526020016000206001016040516020016106599190610eb0565b60405160208183030381529060405280519060200120141561067f576001915050610695565b6000915050610695565b6000915050610695565b505b92915050565b60608060606000546040519080825280602002602001820160405280156106d15781602001602082028038833980820191505090505b509050606060005460405190808252806020026020018201604052801561070c57816020015b60608152602001906001900390816106f75790505b50905060008090505b6000548110156108a057600015156002600083815260200190815260200160002060020160149054906101000a900460ff1615151415610893576002600082815260200190815260200160002060020160009054906101000a900473ffffffffffffffffffffffffffffffffffffffff1683828151811061079257fe5b602002602001019073ffffffffffffffffffffffffffffffffffffffff16908173ffffffffffffffffffffffffffffffffffffffff1681525050600260008281526020019081526020016000206000018054600181600116156101000203166002900480601f0160208091040260200160405190810160405280929190818152602001828054600181600116156101000203166002900480156108765780601f1061084b57610100808354040283529160200191610876565b820191906000526020600020905b81548152906001019060200180831161085957829003601f168201915b505050505082828151811061088757fe5b60200260200101819052505b8080600101915050610715565b5081819350935050509091565b828054600181600116156101000203166002900490600052602060002090601f016020900481019282601f106108ee57805160ff191683800117855561091c565b8280016001018555821561091c579182015b8281111561091b578251825591602001919060010190610900565b5b509050610929919061092d565b5090565b61094f91905b8082111561094b576000816000905550600101610933565b5090565b90565b60008135905061096181611148565b92915050565b6000813590506109768161115f565b92915050565b600082601f83011261098d57600080fd5b81356109a061099b82610f8a565b610f5d565b915080825260208301602083018583830111156109bc57600080fd5b6109c78382846110f5565b50505092915050565b6000813590506109df81611176565b92915050565b6000602082840312156109f757600080fd5b6000610a0584828501610952565b91505092915050565b60008060408385031215610a2157600080fd5b6000610a2f85828601610952565b9250506020610a40858286016109d0565b9150509250929050565b60008060408385031215610a5d57600080fd5b600083013567ffffffffffffffff811115610a7757600080fd5b610a838582860161097c565b9250506020610a9485828601610952565b9150509250929050565b60008060408385031215610ab157600080fd5b600083013567ffffffffffffffff811115610acb57600080fd5b610ad78582860161097c565b925050602083013567ffffffffffffffff811115610af457600080fd5b610b008582860161097c565b9150509250929050565b60008060008060808587031215610b2057600080fd5b600085013567ffffffffffffffff811115610b3a57600080fd5b610b468782880161097c565b945050602085013567ffffffffffffffff811115610b6357600080fd5b610b6f8782880161097c565b9350506040610b8087828801610952565b9250506060610b9187828801610967565b91505092959194509250565b600060208284031215610baf57600080fd5b6000610bbd848285016109d0565b91505092915050565b6000610bd28383610c0a565b60208301905092915050565b6000610bea8383610dc3565b905092915050565b6000610bfe8383610e8a565b60208301905092915050565b610c13816110ad565b82525050565b6000610c2482610fef565b610c2e818561104d565b9350610c3983610fb6565b8060005b83811015610c6a578151610c518882610bc6565b9750610c5c83611026565b925050600181019050610c3d565b5085935050505092915050565b6000610c8282610ffa565b610c8c818561105e565b935083602082028501610c9e85610fc3565b8060005b85811015610cda5784840389528151610cbb8582610bde565b9450610cc683611033565b925060208a01995050600181019050610ca2565b50829750879550505050505092915050565b6000610cf782611005565b610d01818561106f565b9350610d0c83610fd0565b8060005b83811015610d3d578151610d248882610bf2565b9750610d2f83611040565b925050600181019050610d10565b5085935050505092915050565b610d53816110bf565b82525050565b6000610d648261101b565b610d6e8185611091565b9350610d7e818560208601611104565b610d8781611137565b840191505092915050565b6000610d9d8261101b565b610da781856110a2565b9350610db7818560208601611104565b80840191505092915050565b6000610dce82611010565b610dd88185611080565b9350610de8818560208601611104565b610df181611137565b840191505092915050565b600081546001811660008114610e195760018114610e3e57610e82565b607f6002830416610e2a81876110a2565b955060ff1983168652808601935050610e82565b60028204610e4c81876110a2565b9550610e5785610fdd565b60005b82811015610e7957815481890152600182019150602081019050610e5a565b82880195505050505b505092915050565b610e93816110eb565b82525050565b6000610ea58284610d92565b915081905092915050565b6000610ebc8284610dfc565b915081905092915050565b60006040820190508181036000830152610ee18185610c19565b90508181036020830152610ef58184610c77565b90509392505050565b60006020820190508181036000830152610f188184610cec565b905092915050565b6000602082019050610f356000830184610d4a565b92915050565b60006020820190508181036000830152610f558184610d59565b905092915050565b6000604051905081810181811067ffffffffffffffff82111715610f8057600080fd5b8060405250919050565b600067ffffffffffffffff821115610fa157600080fd5b601f19601f8301169050602081019050919050565b6000602082019050919050565b6000602082019050919050565b6000602082019050919050565b60008160005260206000209050919050565b600081519050919050565b600081519050919050565b600081519050919050565b600081519050919050565b600081519050919050565b6000602082019050919050565b6000602082019050919050565b6000602082019050919050565b600082825260208201905092915050565b600082825260208201905092915050565b600082825260208201905092915050565b600082825260208201905092915050565b600082825260208201905092915050565b600081905092915050565b60006110b8826110cb565b9050919050565b60008115159050919050565b600073ffffffffffffffffffffffffffffffffffffffff82169050919050565b6000819050919050565b82818337600083830152505050565b60005b83811015611122578082015181840152602081019050611107565b83811115611131576000848401525b50505050565b6000601f19601f8301169050919050565b611151816110ad565b811461115c57600080fd5b50565b611168816110bf565b811461117357600080fd5b50565b61117f816110eb565b811461118a57600080fd5b5056fea265627a7a72305820cf6f7a67f081a0d137eecba9aa0bb6eb3ec229cdaef56d6f00690945967b609f6c6578706572696d656e74616cf50037",
  "source": "      pragma solidity ^0.5.0;\n      pragma experimental ABIEncoderV2;\n\n\n\n      contract LandManagment{\n\n          uint totalUsers = 1;\n          uint totalLands = 0;\n\n          struct User{\n              string username;\n              string password;\n              address userid;\n              bool isAdmin;\n          }\n\n          struct Land{\n              uint landId;\n              string landName;\n              address ownerAddress;\n          }\n\n          mapping(uint => User) users;\n          mapping(uint => Land) lands;\n\n          //constructor function\n          constructor() public{\n              users[0] = User(\"arjun\",\"tops?123\",msg.sender,true);\n          }\n\n          function addUser(string memory username,string memory password, address userid, bool isAdmin) public{\n              users[totalUsers] = User(username,password,userid,isAdmin);\n              totalUsers = totalUsers +1;\n          }\n\n          function getAllUsers() public returns(address[] memory, string[] memory){\n              address[] memory allAddress = new address[](totalUsers);\n              string[] memory allUsernames = new string[](totalUsers);\n              for(uint x=0; x < totalUsers; x++){\n                  if(users[x].isAdmin == false){\n                    allAddress[x] = users[x].userid;\n                    allUsernames[x] = users[x].username;\n                  }\n              }\n              return (allAddress,allUsernames);\n\n          }\n\n          function createLand(string memory landName, address ownerAddress) public{\n              lands[totalLands] = Land(totalLands, landName, ownerAddress);\n              totalLands= totalLands+1;\n          }\n\n          function getLandByUser(address ownerAddress) public returns(uint[] memory) {\n              uint[] memory allLendsBySpecifUser = new uint[](totalLands);\n              uint z = 0;\n                for(uint y=0; y<totalLands; y++){\n                    if(lands[y].ownerAddress == ownerAddress){\n                        allLendsBySpecifUser[z] = y;\n                        z = z+1;\n                    }\n                }\n               return allLendsBySpecifUser;\n          }\n\n          function getLandName(uint landId) public returns(string memory){\n              for(uint y=0; y<totalLands; y++){\n                    if(lands[y].landId == landId){\n                        return lands[y].landName;\n                    }\n                }\n          }\n\n          function transferLand(address userAddress, uint landId) public{\n              lands[landId].ownerAddress = userAddress;\n          }\n\n          function checkIfUserExists(string memory username,string memory password) public returns(bool){\n              for(uint o=0; o<totalUsers; o++){\n                  if(keccak256(abi.encodePacked(users[o].username)) == keccak256(abi.encodePacked(username))){\n                    if(keccak256(abi.encodePacked(users[o].password)) == keccak256(abi.encodePacked(password))){\n                          return true;\n                      }else{\n                          return false;\n                      }\n                  }else{\n                      return false;\n                  }\n              }\n          }\n\n      }",
  "sourcePath": "/home/tops/Desktop/Project/blockChain_demo/blockchain-demo/contracts/LandManagment.sol",
  "compiler": {
    "name": "solc",
    "version": "0.5.8+commit.23d335f2.Emscripten.clang"
  },
  "schemaVersion": "3.0.10",
  "updatedAt": "2019-06-10T10:58:41.838Z",
  "devdoc": {
    "methods": {}
  },
  "userdoc": {
    "methods": {}
  }
}