{
  "contractName": "LandManagment",
  "abi": [
    {
      "inputs": [],
      "payable": false,
      "stateMutability": "nonpayable",
      "type": "constructor"
    },
    {
      "constant": false,
      "inputs": [
        {
          "name": "username",
          "type": "string"
        },
        {
          "name": "password",
          "type": "string"
        },
        {
          "name": "userid",
          "type": "address"
        },
        {
          "name": "isAdmin",
          "type": "bool"
        }
      ],
      "name": "addUser",
      "outputs": [],
      "payable": false,
      "stateMutability": "nonpayable",
      "type": "function"
    },
    {
      "constant": false,
      "inputs": [],
      "name": "getAllUsers",
      "outputs": [
        {
          "name": "",
          "type": "address[]"
        },
        {
          "name": "",
          "type": "string[]"
        }
      ],
      "payable": false,
      "stateMutability": "nonpayable",
      "type": "function"
    },
    {
      "constant": false,
      "inputs": [
        {
          "name": "landName",
          "type": "string"
        },
        {
          "name": "ownerAddress",
          "type": "address"
        }
      ],
      "name": "createLand",
      "outputs": [],
      "payable": false,
      "stateMutability": "nonpayable",
      "type": "function"
    },
    {
      "constant": false,
      "inputs": [
        {
          "name": "ownerAddress",
          "type": "address"
        }
      ],
      "name": "getLandByUser",
      "outputs": [
        {
          "name": "",
          "type": "uint256[]"
        }
      ],
      "payable": false,
      "stateMutability": "nonpayable",
      "type": "function"
    },
    {
      "constant": false,
      "inputs": [
        {
          "name": "landId",
          "type": "uint256"
        }
      ],
      "name": "getLandName",
      "outputs": [
        {
          "name": "",
          "type": "string"
        }
      ],
      "payable": false,
      "stateMutability": "nonpayable",
      "type": "function"
    },
    {
      "constant": false,
      "inputs": [
        {
          "name": "userAddress",
          "type": "address"
        },
        {
          "name": "landId",
          "type": "uint256"
        }
      ],
      "name": "transferLand",
      "outputs": [],
      "payable": false,
      "stateMutability": "nonpayable",
      "type": "function"
    },
    {
      "constant": false,
      "inputs": [
        {
          "name": "username",
          "type": "string"
        },
        {
          "name": "password",
          "type": "string"
        }
      ],
      "name": "checkIfUserExists",
      "outputs": [
        {
          "name": "",
          "type": "bool"
        }
      ],
      "payable": false,
      "stateMutability": "nonpayable",
      "type": "function"
    }
  ],
  "bytecode": "0x6080604052600160005560006001553480156200001b57600080fd5b506080604051908101604052806040805190810160405280600581526020017f61726a756e00000000000000000000000000000000000000000000000000000081525081526020016040805190810160405280600881526020017f746f70733f31323300000000000000000000000000000000000000000000000081525081526020013373ffffffffffffffffffffffffffffffffffffffff16815260200160011515815250600260008081526020019081526020016000206000820151816000019080519060200190620000f292919062000182565b5060208201518160010190805190602001906200011192919062000182565b5060408201518160020160006101000a81548173ffffffffffffffffffffffffffffffffffffffff021916908373ffffffffffffffffffffffffffffffffffffffff16021790555060608201518160020160146101000a81548160ff02191690831515021790555090505062000231565b828054600181600116156101000203166002900490600052602060002090601f016020900481019282601f10620001c557805160ff1916838001178555620001f6565b82800160010185558215620001f6579182015b82811115620001f5578251825591602001919060010190620001d8565b5b50905062000205919062000209565b5090565b6200022e91905b808211156200022a57600081600090555060010162000210565b5090565b90565b6111a280620002416000396000f3fe608060405260043610610083576000357c0100000000000000000000000000000000000000000000000000000000900463ffffffff168063174e361614610088578063a0d09221146100c5578063af598f9c146100ee578063b3f40d6a1461012b578063c32c869b14610154578063c494243f1461017d578063e2842d79146101ba575b600080fd5b34801561009457600080fd5b506100af60048036036100aa9190810190610b93565b6101e6565b6040516100bc9190610f68565b60405180910390f35b3480156100d157600080fd5b506100ec60048036036100e79190810190610bf8565b6102d8565b005b3480156100fa57600080fd5b5061011560048036036101109190810190610d4b565b6103a1565b6040516101229190610fa5565b60405180910390f35b34801561013757600080fd5b50610152600480360361014d9190810190610bbc565b61049c565b005b34801561016057600080fd5b5061017b60048036036101769190810190610cb8565b6104f5565b005b34801561018957600080fd5b506101a4600480360361019f9190810190610c4c565b6105f9565b6040516101b19190610f8a565b60405180910390f35b3480156101c657600080fd5b506101cf610842565b6040516101dd929190610f31565b60405180910390f35b60608060015460405190808252806020026020018201604052801561021a5781602001602082028038833980820191505090505b509050600080905060008090505b6001548110156102cd578473ffffffffffffffffffffffffffffffffffffffff166003600083815260200190815260200160002060020160009054906101000a900473ffffffffffffffffffffffffffffffffffffffff1673ffffffffffffffffffffffffffffffffffffffff1614156102c0578083838151811015156102ab57fe5b90602001906020020181815250506001820191505b8080600101915050610228565b508192505050919050565b60606040519081016040528060015481526020018381526020018273ffffffffffffffffffffffffffffffffffffffff16815250600360006001548152602001908152602001600020600082015181600001556020820151816001019080519060200190610347929190610a5c565b5060408201518160020160006101000a81548173ffffffffffffffffffffffffffffffffffffffff021916908373ffffffffffffffffffffffffffffffffffffffff16021790555090505060018054016001819055505050565b606060008090505b60015481101561049557826003600083815260200190815260200160002060000154141561048857600360008281526020019081526020016000206001018054600181600116156101000203166002900480601f01602080910402602001604051908101604052809291908181526020018280546001816001161561010002031660029004801561047b5780601f106104505761010080835404028352916020019161047b565b820191906000526020600020905b81548152906001019060200180831161045e57829003601f168201915b5050505050915050610497565b80806001019150506103a9565b505b919050565b816003600083815260200190815260200160002060020160006101000a81548173ffffffffffffffffffffffffffffffffffffffff021916908373ffffffffffffffffffffffffffffffffffffffff1602179055505050565b6080604051908101604052808581526020018481526020018373ffffffffffffffffffffffffffffffffffffffff1681526020018215158152506002600080548152602001908152602001600020600082015181600001908051906020019061055f929190610a5c565b50602082015181600101908051906020019061057c929190610a5c565b5060408201518160020160006101000a81548173ffffffffffffffffffffffffffffffffffffffff021916908373ffffffffffffffffffffffffffffffffffffffff16021790555060608201518160020160146101000a81548160ff02191690831515021790555090505060016000540160008190555050505050565b6000806000905060005481101561083a57836040516020018082805190602001908083835b602083101515610643578051825260208201915060208101905060208303925061061e565b6001836020036101000a038019825116818451168082178552505050505050905001915050604051602081830303815290604052805190602001206002600083815260200190815260200160002060000160405160200180828054600181600116156101000203166002900480156106f25780601f106106d05761010080835404028352918201916106f2565b820191906000526020600020905b8154815290600101906020018083116106de575b505091505060405160208183030381529060405280519060200120141561083057826040516020018082805190602001908083835b60208310151561074c5780518252602082019150602081019050602083039250610727565b6001836020036101000a038019825116818451168082178552505050505050905001915050604051602081830303815290604052805190602001206002600083815260200190815260200160002060010160405160200180828054600181600116156101000203166002900480156107fb5780601f106107d95761010080835404028352918201916107fb565b820191906000526020600020905b8154815290600101906020018083116107e7575b505091505060405160208183030381529060405280519060200120141561082657600191505061083c565b600091505061083c565b600091505061083c565b505b92915050565b60608060606000546040519080825280602002602001820160405280156108785781602001602082028038833980820191505090505b50905060606000546040519080825280602002602001820160405280156108b357816020015b606081526020019060019003908161089e5790505b50905060008090505b600054811015610a4f57600015156002600083815260200190815260200160002060020160149054906101000a900460ff1615151415610a42576002600082815260200190815260200160002060020160009054906101000a900473ffffffffffffffffffffffffffffffffffffffff16838281518110151561093b57fe5b9060200190602002019073ffffffffffffffffffffffffffffffffffffffff16908173ffffffffffffffffffffffffffffffffffffffff1681525050600260008281526020019081526020016000206000018054600181600116156101000203166002900480601f016020809104026020016040519081016040528092919081815260200182805460018160011615610100020316600290048015610a215780601f106109f657610100808354040283529160200191610a21565b820191906000526020600020905b815481529060010190602001808311610a0457829003601f168201915b50505050508282815181101515610a3457fe5b906020019060200201819052505b80806001019150506108bc565b5081819350935050509091565b828054600181600116156101000203166002900490600052602060002090601f016020900481019282601f10610a9d57805160ff1916838001178555610acb565b82800160010185558215610acb579182015b82811115610aca578251825591602001919060010190610aaf565b5b509050610ad89190610adc565b5090565b610afe91905b80821115610afa576000816000905550600101610ae2565b5090565b90565b6000610b0d82356110ed565b905092915050565b6000610b2182356110ff565b905092915050565b600082601f8301121515610b3c57600080fd5b8135610b4f610b4a82610ff4565b610fc7565b91508082526020830160208301858383011115610b6b57600080fd5b610b76838284611115565b50505092915050565b6000610b8b823561110b565b905092915050565b600060208284031215610ba557600080fd5b6000610bb384828501610b01565b91505092915050565b60008060408385031215610bcf57600080fd5b6000610bdd85828601610b01565b9250506020610bee85828601610b7f565b9150509250929050565b60008060408385031215610c0b57600080fd5b600083013567ffffffffffffffff811115610c2557600080fd5b610c3185828601610b29565b9250506020610c4285828601610b01565b9150509250929050565b60008060408385031215610c5f57600080fd5b600083013567ffffffffffffffff811115610c7957600080fd5b610c8585828601610b29565b925050602083013567ffffffffffffffff811115610ca257600080fd5b610cae85828601610b29565b9150509250929050565b60008060008060808587031215610cce57600080fd5b600085013567ffffffffffffffff811115610ce857600080fd5b610cf487828801610b29565b945050602085013567ffffffffffffffff811115610d1157600080fd5b610d1d87828801610b29565b9350506040610d2e87828801610b01565b9250506060610d3f87828801610b15565b91505092959194509250565b600060208284031215610d5d57600080fd5b6000610d6b84828501610b7f565b91505092915050565b610d7d816110a5565b82525050565b6000610d8e82611047565b808452602084019350610da083611020565b60005b82811015610dd257610db6868351610d74565b610dbf8261107e565b9150602086019550600181019050610da3565b50849250505092915050565b6000610de982611052565b80845260208401935083602082028501610e028561102d565b60005b84811015610e3b578383038852610e1d838351610eec565b9250610e288261108b565b9150602088019750600181019050610e05565b508196508694505050505092915050565b6000610e578261105d565b808452602084019350610e698361103a565b60005b82811015610e9b57610e7f868351610f22565b610e8882611098565b9150602086019550600181019050610e6c565b50849250505092915050565b610eb0816110b7565b82525050565b6000610ec182611073565b808452610ed5816020860160208601611124565b610ede81611157565b602085010191505092915050565b6000610ef782611068565b808452610f0b816020860160208601611124565b610f1481611157565b602085010191505092915050565b610f2b816110e3565b82525050565b60006040820190508181036000830152610f4b8185610d83565b90508181036020830152610f5f8184610dde565b90509392505050565b60006020820190508181036000830152610f828184610e4c565b905092915050565b6000602082019050610f9f6000830184610ea7565b92915050565b60006020820190508181036000830152610fbf8184610eb6565b905092915050565b6000604051905081810181811067ffffffffffffffff82111715610fea57600080fd5b8060405250919050565b600067ffffffffffffffff82111561100b57600080fd5b601f19601f8301169050602081019050919050565b6000602082019050919050565b6000602082019050919050565b6000602082019050919050565b600081519050919050565b600081519050919050565b600081519050919050565b600081519050919050565b600081519050919050565b6000602082019050919050565b6000602082019050919050565b6000602082019050919050565b60006110b0826110c3565b9050919050565b60008115159050919050565b600073ffffffffffffffffffffffffffffffffffffffff82169050919050565b6000819050919050565b60006110f8826110c3565b9050919050565b60008115159050919050565b6000819050919050565b82818337600083830152505050565b60005b83811015611142578082015181840152602081019050611127565b83811115611151576000848401525b50505050565b6000601f19601f830116905091905056fea265627a7a72305820789d84bb303583a647da251f421694f11b9ea99c5bdc3fa9b361a10987d3a9306c6578706572696d656e74616cf50037",
  "source": "      pragma solidity ^0.5.0;\n      pragma experimental ABIEncoderV2;\n\n\n\n      contract LandManagment{\n\n          uint totalUsers = 1;\n          uint totalLands = 0;\n\n          struct User{\n              string username;\n              string password;\n              address userid;\n              bool isAdmin;\n          }\n\n          struct Land{\n              uint landId;\n              string landName;\n              address ownerAddress;\n          }\n\n          mapping(uint => User) users;\n          mapping(uint => Land) lands;\n\n          //constructor function\n          constructor() public{\n              users[0] = User(\"arjun\",\"tops?123\",msg.sender,true);\n          }\n\n          function addUser(string memory username,string memory password, address userid, bool isAdmin) public{\n              users[totalUsers] = User(username,password,userid,isAdmin);\n              totalUsers = totalUsers +1;\n          }\n\n          function getAllUsers() public returns(address[] memory, string[] memory){\n              address[] memory allAddress = new address[](totalUsers);\n              string[] memory allUsernames = new string[](totalUsers);\n              for(uint x=0; x < totalUsers; x++){\n                  if(users[x].isAdmin == false){\n                    allAddress[x] = users[x].userid;\n                    allUsernames[x] = users[x].username;\n                  }\n              }\n              return (allAddress,allUsernames);\n\n          }\n\n          function createLand(string memory landName, address ownerAddress) public{\n              lands[totalLands] = Land(totalLands, landName, ownerAddress);\n              totalLands= totalLands+1;\n          }\n\n          function getLandByUser(address ownerAddress) public returns(uint[] memory) {\n              uint[] memory allLendsBySpecifUser = new uint[](totalLands);\n              uint z = 0;\n                for(uint y=0; y<totalLands; y++){\n                    if(lands[y].ownerAddress == ownerAddress){\n                        allLendsBySpecifUser[z] = y;\n                        z = z+1;\n                    }\n                }\n               return allLendsBySpecifUser;\n          }\n\n          function getLandName(uint landId) public returns(string memory){\n              for(uint y=0; y<totalLands; y++){\n                    if(lands[y].landId == landId){\n                        return lands[y].landName;\n                    }\n                }\n          }\n\n          function transferLand(address userAddress, uint landId) public{\n              lands[landId].ownerAddress = userAddress;\n          }\n\n          function checkIfUserExists(string memory username,string memory password) public returns(bool){\n              for(uint o=0; o<totalUsers; o++){\n                  if(keccak256(abi.encodePacked(users[o].username)) == keccak256(abi.encodePacked(username))){\n                    if(keccak256(abi.encodePacked(users[o].password)) == keccak256(abi.encodePacked(password))){\n                          return true;\n                      }else{\n                          return false;\n                      }\n                  }else{\n                      return false;\n                  }\n              }\n          }\n\n      }",
  "sourcePath": "/home/tops/Desktop/arjun/blockchain/react5/react8/blockchain_demo/contracts/LandManagment.sol",
  "compiler": {
    "name": "solc",
    "version": "0.5.0+commit.1d4f565a.Emscripten.clang"
  },
  "schemaVersion": "3.0.9",
  "updatedAt": "2019-06-08T09:18:05.782Z",
  "devdoc": {
    "methods": {}
  },
  "userdoc": {
    "methods": {}
  }
}