{
  "contractName": "LandManagment",
  "abi": [
    {
      "inputs": [],
      "payable": false,
      "stateMutability": "nonpayable",
      "type": "constructor"
    },
    {
      "constant": false,
      "inputs": [
        {
          "name": "username",
          "type": "string"
        },
        {
          "name": "password",
          "type": "string"
        },
        {
          "name": "userid",
          "type": "address"
        },
        {
          "name": "isAdmin",
          "type": "bool"
        }
      ],
      "name": "addUser",
      "outputs": [],
      "payable": false,
      "stateMutability": "nonpayable",
      "type": "function"
    },
    {
      "constant": false,
      "inputs": [],
      "name": "getAllUsers",
      "outputs": [
        {
          "name": "",
          "type": "address[]"
        },
        {
          "name": "",
          "type": "string[]"
        }
      ],
      "payable": false,
      "stateMutability": "nonpayable",
      "type": "function"
    },
    {
      "constant": false,
      "inputs": [
        {
          "name": "landName",
          "type": "string"
        },
        {
          "name": "ownerAddress",
          "type": "address"
        }
      ],
      "name": "createLand",
      "outputs": [],
      "payable": false,
      "stateMutability": "nonpayable",
      "type": "function"
    },
    {
      "constant": false,
      "inputs": [
        {
          "name": "ownerAddress",
          "type": "address"
        }
      ],
      "name": "getLandByUser",
      "outputs": [
        {
          "name": "",
          "type": "uint256[]"
        }
      ],
      "payable": false,
      "stateMutability": "nonpayable",
      "type": "function"
    },
    {
      "constant": false,
      "inputs": [
        {
          "name": "landId",
          "type": "uint256"
        }
      ],
      "name": "getLandName",
      "outputs": [
        {
          "name": "",
          "type": "string"
        }
      ],
      "payable": false,
      "stateMutability": "nonpayable",
      "type": "function"
    },
    {
      "constant": false,
      "inputs": [
        {
          "name": "userAddress",
          "type": "address"
        },
        {
          "name": "landId",
          "type": "uint256"
        }
      ],
      "name": "transferLand",
      "outputs": [],
      "payable": false,
      "stateMutability": "nonpayable",
      "type": "function"
    }
  ],
  "bytecode": "0x60806040526001600055600060015534801561001a57600080fd5b506080604051908101604052806040805190810160405280600581526020017f61726a756e00000000000000000000000000000000000000000000000000000081525081526020016040805190810160405280600881526020017f746f70733f31323300000000000000000000000000000000000000000000000081525081526020013373ffffffffffffffffffffffffffffffffffffffff168152602001600115158152506002600080815260200190815260200160002060008201518160000190805190602001906100ef92919061017c565b50602082015181600101908051906020019061010c92919061017c565b5060408201518160020160006101000a81548173ffffffffffffffffffffffffffffffffffffffff021916908373ffffffffffffffffffffffffffffffffffffffff16021790555060608201518160020160146101000a81548160ff021916908315150217905550905050610221565b828054600181600116156101000203166002900490600052602060002090601f016020900481019282601f106101bd57805160ff19168380011785556101eb565b828001600101855582156101eb579182015b828111156101ea5782518255916020019190600101906101cf565b5b5090506101f891906101fc565b5090565b61021e91905b8082111561021a576000816000905550600101610202565b5090565b90565b610e6f80620002316000396000f3fe608060405260043610610078576000357c0100000000000000000000000000000000000000000000000000000000900463ffffffff168063174e36161461007d578063a0d09221146100ba578063af598f9c146100e3578063b3f40d6a14610120578063c32c869b14610149578063e2842d7914610172575b600080fd5b34801561008957600080fd5b506100a4600480360361009f9190810190610902565b61019e565b6040516100b19190610c5c565b60405180910390f35b3480156100c657600080fd5b506100e160048036036100dc9190810190610967565b610290565b005b3480156100ef57600080fd5b5061010a60048036036101059190810190610a4e565b610359565b6040516101179190610c7e565b60405180910390f35b34801561012c57600080fd5b506101476004803603610142919081019061092b565b610454565b005b34801561015557600080fd5b50610170600480360361016b91908101906109bb565b6104ad565b005b34801561017e57600080fd5b506101876105b1565b604051610195929190610c25565b60405180910390f35b6060806001546040519080825280602002602001820160405280156101d25781602001602082028038833980820191505090505b509050600080905060008090505b600154811015610285578473ffffffffffffffffffffffffffffffffffffffff166003600083815260200190815260200160002060020160009054906101000a900473ffffffffffffffffffffffffffffffffffffffff1673ffffffffffffffffffffffffffffffffffffffff1614156102785780838381518110151561026357fe5b90602001906020020181815250506001820191505b80806001019150506101e0565b508192505050919050565b60606040519081016040528060015481526020018381526020018273ffffffffffffffffffffffffffffffffffffffff168152506003600060015481526020019081526020016000206000820151816000015560208201518160010190805190602001906102ff9291906107cb565b5060408201518160020160006101000a81548173ffffffffffffffffffffffffffffffffffffffff021916908373ffffffffffffffffffffffffffffffffffffffff16021790555090505060018054016001819055505050565b606060008090505b60015481101561044d57826003600083815260200190815260200160002060000154141561044057600360008281526020019081526020016000206001018054600181600116156101000203166002900480601f0160208091040260200160405190810160405280929190818152602001828054600181600116156101000203166002900480156104335780601f1061040857610100808354040283529160200191610433565b820191906000526020600020905b81548152906001019060200180831161041657829003601f168201915b505050505091505061044f565b8080600101915050610361565b505b919050565b816003600083815260200190815260200160002060020160006101000a81548173ffffffffffffffffffffffffffffffffffffffff021916908373ffffffffffffffffffffffffffffffffffffffff1602179055505050565b6080604051908101604052808581526020018481526020018373ffffffffffffffffffffffffffffffffffffffff168152602001821515815250600260008054815260200190815260200160002060008201518160000190805190602001906105179291906107cb565b5060208201518160010190805190602001906105349291906107cb565b5060408201518160020160006101000a81548173ffffffffffffffffffffffffffffffffffffffff021916908373ffffffffffffffffffffffffffffffffffffffff16021790555060608201518160020160146101000a81548160ff02191690831515021790555090505060016000540160008190555050505050565b60608060606000546040519080825280602002602001820160405280156105e75781602001602082028038833980820191505090505b509050606060005460405190808252806020026020018201604052801561062257816020015b606081526020019060019003908161060d5790505b50905060008090505b6000548110156107be57600015156002600083815260200190815260200160002060020160149054906101000a900460ff16151514156107b1576002600082815260200190815260200160002060020160009054906101000a900473ffffffffffffffffffffffffffffffffffffffff1683828151811015156106aa57fe5b9060200190602002019073ffffffffffffffffffffffffffffffffffffffff16908173ffffffffffffffffffffffffffffffffffffffff1681525050600260008281526020019081526020016000206000018054600181600116156101000203166002900480601f0160208091040260200160405190810160405280929190818152602001828054600181600116156101000203166002900480156107905780601f1061076557610100808354040283529160200191610790565b820191906000526020600020905b81548152906001019060200180831161077357829003601f168201915b505050505082828151811015156107a357fe5b906020019060200201819052505b808060010191505061062b565b5081819350935050509091565b828054600181600116156101000203166002900490600052602060002090601f016020900481019282601f1061080c57805160ff191683800117855561083a565b8280016001018555821561083a579182015b8281111561083957825182559160200191906001019061081e565b5b509050610847919061084b565b5090565b61086d91905b80821115610869576000816000905550600101610851565b5090565b90565b600061087c8235610dba565b905092915050565b60006108908235610dcc565b905092915050565b600082601f83011215156108ab57600080fd5b81356108be6108b982610ccd565b610ca0565b915080825260208301602083018583830111156108da57600080fd5b6108e5838284610de2565b50505092915050565b60006108fa8235610dd8565b905092915050565b60006020828403121561091457600080fd5b600061092284828501610870565b91505092915050565b6000806040838503121561093e57600080fd5b600061094c85828601610870565b925050602061095d858286016108ee565b9150509250929050565b6000806040838503121561097a57600080fd5b600083013567ffffffffffffffff81111561099457600080fd5b6109a085828601610898565b92505060206109b185828601610870565b9150509250929050565b600080600080608085870312156109d157600080fd5b600085013567ffffffffffffffff8111156109eb57600080fd5b6109f787828801610898565b945050602085013567ffffffffffffffff811115610a1457600080fd5b610a2087828801610898565b9350506040610a3187828801610870565b9250506060610a4287828801610884565b91505092959194509250565b600060208284031215610a6057600080fd5b6000610a6e848285016108ee565b91505092915050565b610a8081610d7e565b82525050565b6000610a9182610d20565b808452602084019350610aa383610cf9565b60005b82811015610ad557610ab9868351610a77565b610ac282610d57565b9150602086019550600181019050610aa6565b50849250505092915050565b6000610aec82610d2b565b80845260208401935083602082028501610b0585610d06565b60005b84811015610b3e578383038852610b20838351610be0565b9250610b2b82610d64565b9150602088019750600181019050610b08565b508196508694505050505092915050565b6000610b5a82610d36565b808452602084019350610b6c83610d13565b60005b82811015610b9e57610b82868351610c16565b610b8b82610d71565b9150602086019550600181019050610b6f565b50849250505092915050565b6000610bb582610d4c565b808452610bc9816020860160208601610df1565b610bd281610e24565b602085010191505092915050565b6000610beb82610d41565b808452610bff816020860160208601610df1565b610c0881610e24565b602085010191505092915050565b610c1f81610db0565b82525050565b60006040820190508181036000830152610c3f8185610a86565b90508181036020830152610c538184610ae1565b90509392505050565b60006020820190508181036000830152610c768184610b4f565b905092915050565b60006020820190508181036000830152610c988184610baa565b905092915050565b6000604051905081810181811067ffffffffffffffff82111715610cc357600080fd5b8060405250919050565b600067ffffffffffffffff821115610ce457600080fd5b601f19601f8301169050602081019050919050565b6000602082019050919050565b6000602082019050919050565b6000602082019050919050565b600081519050919050565b600081519050919050565b600081519050919050565b600081519050919050565b600081519050919050565b6000602082019050919050565b6000602082019050919050565b6000602082019050919050565b6000610d8982610d90565b9050919050565b600073ffffffffffffffffffffffffffffffffffffffff82169050919050565b6000819050919050565b6000610dc582610d90565b9050919050565b60008115159050919050565b6000819050919050565b82818337600083830152505050565b60005b83811015610e0f578082015181840152602081019050610df4565b83811115610e1e576000848401525b50505050565b6000601f19601f830116905091905056fea265627a7a72305820998ccb4ab575c71fea2bd5ecdd1b386b19e3113f778d5685b5fac8c7827aa7ec6c6578706572696d656e74616cf50037",
  "source": "      pragma solidity ^0.5.0;\n      pragma experimental ABIEncoderV2;\n\n\n\n      contract LandManagment{\n\n          uint totalUsers = 1;\n          uint totalLands = 0;\n\n          struct User{\n              string username;\n              string password;\n              address userid;\n              bool isAdmin;\n          }\n\n          struct Land{\n              uint landId;\n              string landName;\n              address ownerAddress;\n          }\n\n          mapping(uint => User) users;\n          mapping(uint => Land) lands;\n\n          //constructor function\n          constructor() public{\n              users[0] = User(\"arjun\",\"tops?123\",msg.sender,true);\n          }\n\n          function addUser(string memory username,string memory password, address userid, bool isAdmin) public{\n              users[totalUsers] = User(username,password,userid,isAdmin);\n              totalUsers = totalUsers +1;\n          }\n\n          function getAllUsers() public returns(address[] memory, string[] memory){\n              address[] memory allAddress = new address[](totalUsers);\n              string[] memory allUsernames = new string[](totalUsers);\n              for(uint x=0; x < totalUsers; x++){\n                  if(users[x].isAdmin == false){\n                    allAddress[x] = users[x].userid;\n                    allUsernames[x] = users[x].username;\n                  }\n              }\n              return (allAddress,allUsernames);\n\n          }\n\n          function createLand(string memory landName, address ownerAddress) public{\n              lands[totalLands] = Land(totalLands, landName, ownerAddress);\n              totalLands= totalLands+1;\n          }\n\n          function getLandByUser(address ownerAddress) public returns(uint[] memory) {\n              uint[] memory allLendsBySpecifUser = new uint[](totalLands);\n              uint z = 0;\n                for(uint y=0; y<totalLands; y++){\n                    if(lands[y].ownerAddress == ownerAddress){\n                        allLendsBySpecifUser[z] = y;\n                        z = z+1;\n                    }\n                }\n               return allLendsBySpecifUser;\n          }\n\n          function getLandName(uint landId) public returns(string memory){\n              for(uint y=0; y<totalLands; y++){\n                    if(lands[y].landId == landId){\n                        return lands[y].landName;\n                    }\n                }\n          }\n\n          function transferLand(address userAddress, uint landId) public{\n              lands[landId].ownerAddress = userAddress;\n          }\n\n      }",
  "sourcePath": "/home/tops/Desktop/arjun/blockchain/react5/react8/blockchain_demo/contracts/LandManagment.sol",
  "compiler": {
    "name": "solc",
    "version": "0.5.0+commit.1d4f565a.Emscripten.clang"
  },
  "schemaVersion": "3.0.9",
  "updatedAt": "2019-06-08T04:53:37.475Z",
  "devdoc": {
    "methods": {}
  },
  "userdoc": {
    "methods": {}
  }
}